:100000000C9419020C9460020C9460020C94C40FBE
:100010000C9460020C9460020C9460020C946002D8
:100020000C9460020C9460020C948C210C9460225D
:100030000C94991C0C9460020C9460020C94600265
:100040000C9460020C9460020C9460020C946002A8
:100050000C9460020C940C1D0C9460020C946002D1
:100060000C9460020C9460020C9460020C94600288
:100070000C9460020C9460020C9460020C94600278
:100080000C9460020C9460020C9460020C94600268
:100090000C9460020C9460020C9460020C94600258
:1000A0000C9460020C9460020C946002290014000D
:1000B0001A000800150017002D002B000400160080
:1000C000070009000A002F00E0001D001B000600C9
:1000D000190005000000E100E20000576E5D296193
:1000E000000000002A00130012000C0018001C0081
:1000F0002E00310033000F000E000D000B00300009
:1001000028003800370036001000110000000257A8
:10011000E60001576F5D2A620000000001001E0228
:100120001F0220022102220234022C011E001F00A5
:100130002000210022002F020100010001003502F1
:100140002E022D000000010001000100010001004D
:10015000000000004C002702260225022402230290
:10016000340035002700260025002400230030023B
:100170000100380236023702380025020000010073
:100180000100010001004C620000000001003A0083
:100190003B003C003D003E0044002C014A004E0064
:1001A0004B004D0001000100010001004600490024
:1001B00047004800000001000100010001000100AB
:1001C00000000000010043004200410040003F00E9
:1001D0004500010001004F00520051005000010095
:1001E0000100010001000100010001000000010008
:1001F0000100010001004C62000000002900140011
:100200001A000800150017002D002B00040016002E
:10021000070009000A002F0000571D001B00060000
:10022000190005000000E100E200E000705D2961B6
:10023000000000002A00130012000C0018001C002F
:100240002E00310033000F000E000D000B003000B7
:100250002800380037003600100011000000025757
:10026000E6000157715D2A620000000001001E02D5
:100270001F0220022102220234022C011E001F0054
:100280002000210022002F020100010001003502A0
:100290002E022D00000001000100010001000100FC
:1002A000000000004C00270226022502240223023F
:1002B00034003500270026002500240023003002EA
:1002C0000100380236023702380025020000010022
:1002D0000100010001004C620000000001003A0032
:1002E0003B003C003D003E0044002C014A004E0013
:1002F0004B004D00010001000100010046004900D3
:100300004700480000000100010001000100010059
:1003100000000000010043004200410040003F0097
:100320004500010001004F00520051005000010043
:1003300001000100010001000100010000000100B6
:100340000100010001004C62000000000E036B0080
:10035000610070006C0075007300000010036D00F8
:1003600069006B0061006D006F0033000000040342
:10037000090409023B00020100A0FA09040000017F
:10038000030101000921110100012240000705813C
:100390000308000A090401000103000000092111FB
:1003A0000100012232000705820320000A12011019
:1003B0000100000008A2D8020001000102000105AE
:1003C000010980A101850319012AB700150126B78B
:1003D00000950175108100C0050C0901A10185047B
:1003E00019012AA002150126A002950175108100AD
:1003F000C005010906A101050719E029E715002537
:10040000019508750181029501750881010507199B
:100410000029FF150026FF009506750881000508D4
:100420001901290595057501910295017503910141
:10043000C00011241FBECFEFDAE0DEBFCDBF04B68F
:1004400003FE27C08091AF029091B002A091B1024B
:10045000B091B2028730904BA740B04BD1F41092CC
:10046000AF021092B0021092B1021092B20214BE0A
:1004700084B7877F84BF0FB6F894A89580916000F9
:10048000886180936000109260000FBEE0E0F8E3A6
:10049000099511E0A0E0B1E0E2E4F9E402C00590C2
:1004A0000D92A03DB107D9F722E0A0EDB1E001C067
:1004B0001D92AF3AB207E1F70E94C81E0C946C245B
:1004C0000C9400008F559D458F30910508F0E8C2CF
:1004D000FC01E259FB4DDB0112969C910C94242403
:1004E000911102C080E00895E0915201F091530112
:1004F0008081382F327081FB992790F99093D30136
:10050000282F207285FB992790F99093D201311101
:100510001AC0222301F185EE0E9444128FE20E944C
:10052000BA118FE20E9444128091D301882319F0FE
:1005300081EE0E94BA118091D201882399F285EE52
:100540000E94BA11CFCF81EE0E9444128091D20155
:10055000882321F3E0CF8FE10E94BA118FE10E943E
:100560004412C0CF992309F4BDCFE0915201F0911C
:1005700053018081382F327081FB992790F9909335
:10058000D301282F207285FB992790F99093D201EF
:1005900031110AC0222381F085EE0E9444128EE2BE
:1005A0000E94BA118EE2BECF81EE0E944412809169
:1005B000D2018823A1F3F0CF83E20E94BA1183E233
:1005C000CECF992309F48ECFE0915201F0915301DF
:1005D0008081382F327081FB992790F99093D30155
:1005E000282F207285FB992790F99093D201311121
:1005F00010C02223B1F085EE0E94441281EE0E94C9
:10060000BA1183E20E94BA1183E20E94441281EE81
:1006100089CF81EE0E9444128091D201882371F328
:10062000EACF84E20E94BA1184E299CF992309F4B7
:1006300059CFE0915201F09153018081382F3270EF
:1006400081FB992790F99093D301282F207285FB85
:10065000992790F99093D20131110DC0222399F07E
:1006600085EE0E94441281EE0E94BA1184E30E943A
:10067000BA1184E3CACF81EE0E9444128091D20164
:10068000882389F3EDCF85E20E94BA1185E267CF16
:10069000992309F427CFE0915201F0915301808111
:1006A000382F327081FB992790F99093D301282F2E
:1006B000207285FB992790F99093D20131110DC0DA
:1006C000222399F085EE0E94441281EE0E94BA1115
:1006D00085E20E94BA1185E298CF81EE0E94441211
:1006E0008091D201882389F3EDCF86E20E94BA116E
:1006F00086E235CF992309F4F5CEE0915201F091CD
:1007000053018081382F327081FB992790F99093A3
:10071000D301282F207285FB992790F99093D2015D
:1007200031110DC0222399F085EE0E94441281EE12
:100730000E94BA1186E20E94BA1186E266CF81EE6B
:100740000E9444128091D201882389F3EDCF87E281
:100750000E94BA1187E203CF992309F4C3CEE09136
:100760005201F09153018081382F327081FB99271B
:1007700090F99093D301282F207285FB992790F947
:100780009093D20131110DC0222399F085EE0E9481
:10079000441281EE0E94BA1187E80E94BA1187E8DC
:1007A00034CF81EE0E9444128091D201882389F3D4
:1007B000EDCF8DE20E94BA118DE2D1CE992309F4DA
:1007C00091CEE0915201F09153018081382F327027
:1007D00081FB992790F99093D301282F207285FBF4
:1007E000992790F99093D20131110DC0222399F0ED
:1007F00085EE0E94441281EE0E94BA1183E30E94AA
:10080000BA1183E302CF81EE0E9444128091D2019B
:10081000882389F3EDCF81EE0E94BA118DE20E9408
:10082000BA118DE20E94441281EE99CE992309F407
:1008300059CEE0915201F09153018081382F3270EE
:1008400081FB992790F99093D301282F207285FB83
:10085000992790F99093D20131110DC0222399F07C
:1008600085EE0E94441281EE0E94BA1180E30E943C
:10087000BA1180E3CACE81EE0E9444128091D20167
:10088000882389F3EDCF80E30E94BA1180E367CE1D
:10089000992309F427CEE0915201F0915301808110
:1008A000382F327081FB992790F99093D301282F2C
:1008B000207285FB992790F99093D20131110DC0D8
:1008C000222399F085EE0E94441281EE0E94BA1113
:1008D00082E30E94BA1182E398CE81EE0E94441214
:1008E0008091D201882389F3EDCF82E30E94BA116F
:1008F00082E335CE992309F4F5CDE0915201F091D0
:1009000053018081382F327081FB992790F99093A1
:10091000D301282F207285FB992790F99093D2015B
:1009200031110DC0222399F085EE0E94441281EE10
:100930000E94BA1189E80E94BA1189E866CE81EE58
:100940000E9444128091D201882389F3EDCF87E879
:100950000E94BA1187E803CE992309F4C3CDE09130
:100960005201F09153018081382F327081FB992719
:1009700090F99093D301282F207285FB992790F945
:100980009093D20131110AC0222381F085EE0E949A
:10099000441284E30E94BA1184E3C4CD81EE0E9424
:1009A00044128091D2018823A1F3F0CF83E30E9407
:1009B000BA1183E3D4CD992309F494CDE091520187
:1009C000F09153018081382F327081FB992790F983
:1009D0009093D301282F207285FB992790F990934B
:1009E000D20131110DC0222399F085EE0E944412EC
:1009F00081EE0E94BA118FE10E94BA118FE105CEFB
:100A000081EE0E9444128091D201882389F3EDCFB8
:100A100081EE0E94BA1184E20E94BA1184E202CFF0
:100A2000992309F45FCDE0915201F0915301808147
:100A3000382F327081FB992790F99093D301282F9A
:100A4000207285FB992790F99093D20131110DC046
:100A5000222399F085EE0E94441281EE0E94BA1181
:100A60008FE20E94BA118FE2D0CD81EE0E94441233
:100A70008091D201882389F3EDCF81EE0E94BA11D3
:100A80008EE20E94BA118EE2CDCE992309F42ACDCE
:100A900081EE0E94BA1189E30E94BA1189E3C2CEA5
:100AA00081E0089580914701823051F0833069F0F0
:100AB000813019F483EE0E94441210924701089588
:100AC00083EE0E94441281EEF6CF83EE0E94441220
:100AD00080EEF1CF80914501823051F0833069F092
:100AE000813019F487EE0E94441210924501089556
:100AF00087EE0E94441285EEF6CF87EE0E944412E4
:100B000084EEF1CF80914301813019F485EE0E948B
:100B10004412109243010895FC018081813029F034
:100B2000823019F0833009F088E008950E948C0526
:100B300080934701823039F0833051F0813069F47D
:100B400083EE0C94BA1183EE0E94BA1181EEF9CFB4
:100B500083EE0E94BA1180EEF4CF08950E948C05B6
:100B600080934501823039F0833051F0813069F44F
:100B700087EE0C94BA1187EE0E94BA1185EEF9CF78
:100B800087EE0E94BA1184EEF4CF08950E948C057E
:100B900080934301813019F0823021F0089585EE71
:100BA0000C94BA1180E00E94CD18882331F083E0C4
:100BB0000E94ED1880E00C940E1980E00E94ED1860
:100BC00083E0F9CF0F931F93CF93DF938C01EB0159
:100BD0000E946202882309F442C0CA810F369DE553
:100BE000190709F462C068F40E361D4531F1CC23B3
:100BF00009F4DEC01092D7011092D6011092D501EF
:100C0000D4C000379DE5190709F481C001371D459F
:100C100071F7CC2309F4ADC00E94D51C6093D801B4
:100C20007093D9018093DA019093DB0185E00E94F3
:100C3000ED1881E08093D40112C0CC2391F00E9482
:100C4000D51C6093D8017093D9018093DA019093F9
:100C5000DB0181E00E94ED1881E08093D701C0E0C4
:100C60001EC08091D7018823A9F06091D8017091AE
:100C7000D9018091DA019091DB010E94F01C6B3F59
:100C800071058105910530F48CE20E94BA118CE265
:100C90000E94441281E00E940E191092D7018C2FFD
:100CA000DF91CF911F910F910895CC2389F00E947D
:100CB000D51C6093D8017093D9018093DA01909389
:100CC000DB0182E00E94ED1881E08093D601C7CF5E
:100CD0008091D6018823A9F06091D8017091D90143
:100CE0008091DA019091DB010E94F01C6B3F71054D
:100CF0008105910530F488E20E94BA1188E20E94D1
:100D0000441282E00E940E191092D601C8CFCC2363
:100D100089F00E94D51C6093D8017093D90180930B
:100D2000DA019093DB0184E00E94ED1881E080936A
:100D3000D50195CF8091D5018823A9F06091D80184
:100D40007091D9018091DA019091DB010E94F01C31
:100D50006B3F71058105910530F48CE20E94BA1158
:100D60008CE20E94441284E00E940E191092D50178
:100D700096CF8091D4018823A9F06091D801709119
:100D8000D9018091DA019091DB010E94F01C6B3F48
:100D900071058105910530F488E20E94BA1188E25C
:100DA0000E94441285E00E940E191092D40177CF60
:100DB000C82F75CF81E008950C94E20508950C9436
:100DC000DE061F93CF93DF9300D000D00F92CDB7F4
:100DD000DEB749835A836B833091090289819A81F6
:100DE00031111DC06623B9F02223A9F00E94DD193C
:100DF000182F682F89819A810E94891969817A81C7
:100E0000812F0F900F900F900F900F90DF91CF9147
:100E10001F910C94AB070E94B519182FEFCF0E94B9
:100E2000DD1969817A81EDCFFC01262F4081518146
:100E30006281738184810C94E106CF93DF93EC018E
:100E400060E00E941407BE01DF91CF910C94DF0691
:100E50000E9486090C94AB090E94740E0C94AE0992
:100E600008950E940F150E9430072FEF84E39CE045
:100E7000215080409040E1F700C000000C94711DAB
:100E80000F931F93CF93DF938C0161E00E941407AF
:100E9000EC01B8010E94D20DB801CE010E94DC061F
:100EA0008823D9F1B801CE010E941A0E8823A9F136
:100EB000B801CE010E94D30B882379F1B801CE018D
:100EC0000E94250C882349F1B801CE010E94480DEB
:100ED000882319F1F8018281882361F0CB35FDE583
:100EE000DF0721F170F4C115ECE5DE07A1F0CF3D7D
:100EF000DC45C9F0C801DF91CF911F910F910C948F
:100F0000DA06CC358DE5D807A1F0CD35DD4591F772
:100F10000E94841AEFCF0E94310780E0DF91CF91C9
:100F20001F910F9108950E94ED1BF7CF0E948D1A1B
:100F3000E1CF0E94901ADECF08950C949C0781E0C7
:100F400008950C949F07CF93C82F0E949D078C2F64
:100F5000CF910C94A107972F70E027E0929F600D2E
:100F6000711D1124FB0198E3899FE00DF11D1124EF
:100F7000EE0FFF1FE455FF4F859194910895CF9395
:100F8000DF930E94AB070E94AB08EC01811522E5BC
:100F90009207E8F5811531E5930708F0ACC0883E6B
:100FA000910510F5803E910570F5883A910570F431
:100FB000853A910508F078C08130910521F10097BC
:100FC00011F1049700F5D0E0C0E01DC08F3B910502
:100FD000D0F7C85AD0E0CC0FDD1FC15ADE4F0990C0
:100FE000D881C02DD4640FC0811540E5940708F066
:100FF00066C0C11580E4D80708F05EC0CE019A959E
:1010000081159F4100F7CE01DF91CF9108958115A1
:1010100036E5930718F5811545E5940708F083C078
:10102000C11584E5D80708F079C09C2F9695969550
:101030009E0123703327C115D34508F461C0C1E078
:10104000D0E002C0CC0FDD1F2A95E2F730E2939F7B
:10105000C0011124C82BD92BDA68D5CFC1158AE578
:10106000D80778F4C11599E5D90708F066C0C1150D
:1010700028E5D20708F4A7CFDC2FCC27C06FD06AB1
:10108000C2CFCE0190568115904208F09CCF8D2F93
:101090008F710E94420990E0982F882788279F71BE
:1010A0009C012C2BE90147C0C55AD0E0C357DE4F45
:1010B000C881D0E0D064A7CFDF70D06AA4CFE4E0CD
:1010C00096958795EA95E1F783702C2F26952695BE
:1010D000237040E2249F90011124382B8C2F8370C1
:1010E000C1E0D0E002C0CC0FDD1F8A95E2F7C22B31
:1010F000D32BDC6888CFD82FCC27C16FD06A83CFA1
:10110000C1E0D0E002C0CC0FDD1F2A95E2F720E25B
:10111000929FC0011124C82BD92BEBCFDC2FCC27F9
:10112000C46FD06A70CF0E944209C82FD0E0DC2F74
:10113000CC27CC27DF71D06266CF8C2F8F700E94B6
:10114000420934E0D695C7953A95E1F7CF709C2FC8
:10115000EC01D06958CF82389105B1F1B0F48133F8
:10116000910509F475C048F48932910509F469C004
:101170008A32910509F473C008958533910509F405
:1011800059C08933910501F10895833E9105A9F174
:1011900038F4803E9105F9F0823E910549F10895B9
:1011A000863E9105A9F1873E9105C9F1843E9105DE
:1011B00019F52091870221FF1FC08091860284FDCE
:1011C00014C087EE90E00895209186022370A1F06C
:1011D00080EE90E008952091860220FD47C0309176
:1011E000870230FF09C024FF44C090E080E004C0C3
:1011F0002091860222FDF7CF08952091860222FDDC
:101200003BC03091870230FDE3CF24FFF5CFEDCF17
:101210002091860223FFF0CF24FDE7CFD2CF20918B
:10122000860223FD2CC03091870231FFEECF84EE81
:1012300090E008952091860225FFDECF89E290E0BC
:1012400008952091860225FFD7CF85E390E0089589
:101250002091860226FFD0CF8AE290E00895209167
:10126000860226FFC9CF81E390E0089589E390E0EC
:10127000089583EE90E0089582EE90E0089586EE62
:1012800090E008959091860292FF06C0282F287161
:101290002830F9F4877F846093FF06C0282F2871D7
:1012A0002831F1F4877E84612091870220FF06C0F7
:1012B000382F38713830D9F4877F816021FF06C01C
:1012C000282F28712831D1F4877E816194FD877E93
:1012D0000895282F24712430F9F68B7F8860DCCFA5
:1012E000282F2471243101F78B7E8861DDCF382FC0
:1012F0003171313019F78E7F8860E0CF282F21714E
:10130000213121F78E7E8861E1CF08950E94481B2C
:10131000811102C00E94ED1B0E94531B80937A0230
:101320000E945B1B90938702809386020E9485092E
:101330000E94571B682F70E090E080E00E946B18BD
:1013400060916502709166028091670290916802D7
:101350000C94A51808950C94AA0908950C94AD094D
:10136000E82FF0E0E057FD4F80810895089580EA6E
:101370008A95F1F7089500C008950C94B709F89480
:10138000E82FE295EF70F0E031A1282F2F7081E077
:1013900090E001C0880F2A95EAF7982F9095932343
:1013A00091A392A1892B82A37894089508950C9417
:1013B000D6090F931F93CF93DF930E94560B809112
:1013C00048018091480194E0811190E09093990246
:1013D00084E0891B8093980284E90E94BF0986E615
:1013E0000E94BF0987E90E94BF0986EC0E94BF09DD
:1013F000C0E9D1E007E911E089910E94BF090C170B
:101400001D07D1F7E8E8F2E0A0E9B2E080E992E058
:1014100011921D928E179F07D9F784E00E94050B49
:101420000E942807DF91CF911F910F910C94600BC0
:101430001F93CF93DF9300D000D0CDB7DEB70E94CB
:101440003C0B182F60919902882309F44FC0198230
:101450001A821B821C82862F90E0BE016F5F7F4F35
:1014600080579D4F0E94CF0E811120C08091DC01DA
:101470008F5F8093DC018630B8F1E0919802F0E054
:10148000E057FD4FDE011196CE01059611921D9297
:10149000A817B907D9F70E942C07812F0F900F903A
:1014A0000F900F90DF91CF911F9108951092DC0162
:1014B000A0919802B0E0A057BD4FBE016F5F7F4F73
:1014C0009E012B5F3F4F10E04D91FB019191BF01B9
:1014D000491731F0AD0141505109FA019083182F9D
:1014E0006217730789F7D7CF10E0D5CF70E0605748
:1014F0007D4F8091980290E080579D4F0E94F60E9C
:101500000E94D709CACFCF92DF92EF92FF920F933A
:101510001F93CF93DF9307E911E088E8E82E82E07C
:10152000F82EC0E0CC24C394D12CF80181918F0116
:10153000F894E82FE295EF70F0E021A18F70A601FA
:1015400002C0440F551F8A95E2F7CA01922F982BCB
:1015500091A392A18095892382A378940E94BB09CC
:10156000E0E9F1E030E020E0D0E04191A42FA29545
:10157000AF70B0E090968C9190E04F7002C095955E
:1015800087954A95E2F780FD3CC08C2D022E01C064
:10159000880F0A94EAF7D82B2F5F3F4F2730310589
:1015A00021F7F801319780810E94BF090E94BD098F
:1015B000F7018081D81739F1D08381E0C82BFFEF84
:1015C000EF1AFF0A41E00B39140709F0AECF609122
:1015D000990270E060577D4F2C2F44E088E892E03C
:1015E0000E94060B0E94180AC11101C0C82F8C2F3F
:1015F000DF91CF911F910F91FF90EF90DF90CF90EF
:10160000089580E0C8CF80E0D9CF0895FF920F936E
:101610001F93CF93DF93F82E092F162FD72FC42FA8
:10162000222349F081E08093DF010E94C91C90933E
:10163000DE018093DD018091DF018823A1F080919C
:10164000DD019091DE010E94E11C069760F0EF2D14
:10165000F02FA12FBD2FCE0FDF2FD11DEC17FD07CF
:1016600041F41092DF01DF91CF911F910F91FF9014
:10167000089581918D93F2CF8091E001811107C08F
:101680000E941724882351F081E08093E00181E0DB
:101690009091E001913009F080E0089582E080931C
:1016A000E0010E941224F3CF0C943C0B0E94540BD7
:1016B000809348010E943C0B81110C94C30E089545
:1016C0000E943C0B811102C00C94C90E08950F9327
:1016D0001F93CF93DF93C42FD22FFC0182818823E5
:1016E000C9F04093E3010E94C91C9093E2018093EA
:1016F000E10180E28C0F883008F050C0C77081E0B3
:1017000001C0880FCA95EAF7DF91CF911F910F9121
:101710000C94B2121091E301141335C08091E101D1
:101720009091E2010E94E11C8A3F910560F5C0E2C0
:10173000CD0F1D17B9F080E2810F883040F417708B
:1017400081E001C0880F1A95EAF70E94B912C830EB
:1017500048F481E09D2F977001C0880F9A95EAF7B1
:101760000E94B212802F0E94AA12C830B8F4D7701B
:1017700081E001C0880FDA95EAF7DF91CF911F91E0
:101780000F910C94B91280E28C0F883038F4C77036
:1017900081E001C0880FCA95EAF7EFCFDF91CF91C2
:1017A0001F910F9108950F939C01CB01243F4CE5AD
:1017B000340759F1A8F4293DFCE53F0701F12A3D22
:1017C0004CE53407D1F1283D3C4591F406E221EE89
:1017D00041EE68ED7CE50E94670B80E00F91089573
:1017E000263FFCE53F07E9F0B0F0273F3C45F9F024
:1017F000FC018281882339F11092E301EFCF07E2E7
:1018000025EE45EE69ED7CE5E6CF06E221EE40EE01
:1018100064EF7CE5E0CF07E225EE44EE65EF7CE582
:10182000DACF06E221EE42EE66EF7CE5D4CF07E2A6
:1018300025EE46EE67EF7CE5CECF08E221E045EEEF
:101840006AED7CE5C8CF81E0C9CFCF93DF93EC018F
:10185000FB018281882309F419C1C230FCE5DF074E
:10186000C0F1C6319CE5D90730F09E012B5F3C45A5
:101870002930310570F50E945B1B9093870280939D
:101880008602C031ECE5DE0709F4CFC008F05BC08A
:10189000C8308CE5D80709F4B6C088F5C430ECE54B
:1018A000DE0709F4A8C0C0F4C2308CE5D80709F4FB
:1018B0009CC0809186028260C330DC4509F498C0E8
:1018C00080918602909187020E94691B0E940F15E9
:1018D00080E0DF91CF910895809186028061C630CB
:1018E000ECE5DE0709F484C0809186028860C73089
:1018F000DC4508F47DC080918602806279C0CC30DE
:101900008CE5D80709F489C070F4809186028C6058
:10191000CA30ECE5DE0709F46BC008F478C08091AA
:1019200086028E7F65C0CE308CE5D80709F479C079
:10193000809186028B7FCF30DC4508F459C08091BE
:1019400086028F7E55C0CC3FECE5DE0709F457C018
:1019500030F5C3318CE5D80709F46FC078F4C13194
:10196000ECE5DE0709F465C0C231DC4509F0A8CF1B
:101970000E940F15809186028F773AC0C5318CE5A1
:10198000D80709F462C008F476C0809187028160AC
:10199000CB3FDC4509F094CF8093870291CFC115EE
:1019A000FDE5DF0709F44DC088F4809187028D7F43
:1019B000CE3F9CE5D90781F3809187028E7FCF3F90
:1019C000DC4550F3809187028360E6CFC230FDE5AD
:1019D000DF0709F459C008F444C080E0C330DD4596
:1019E00009F06ECF0E94EF1B6BCF80918602816061
:1019F0008093860265CF809186028460F9CF8091C2
:101A000087028260C9CF809186028064F1CF0E94F4
:101A10000F15809186028068EBCF809186028D7FC2
:101A2000E7CF80918602877FE3CF809186028F7D0A
:101A3000DFCF809186028F7BDBCF80918602837F10
:101A4000D7CF809187028C7FA7CF8091860282FBBF
:101A5000992790F921E0922790FB82F990FB83F976
:101A6000C7CF80918702982F909591708E7F892B98
:101A700090FB81F991CF0E940F1590918602892FDA
:101A800097FB87F98058B4CF81E0ACCF81E021CFBC
:101A9000CF93DF93EB0186319C4511F50E94931A99
:101AA0009A81992399F08A7A91E009F490E09093D1
:101AB000E401811109C089E20E944D1A0E94D91ADD
:101AC00080E0DF91CF91089585E3F6CF8091E40126
:101AD000811104C089E20E94541AF0CF85E3FBCF44
:101AE00081E0EFCFCF93DF93EC0181E0898B8F8191
:101AF0000E94961A88850E94A91A0E94D91AEA8122
:101B0000FB81309739F06C897D89CE010696DF9193
:101B1000CF910994DF91CF910895EF92FF920F93A7
:101B20001F93CF93DF93EC018A85811134C0EB8042
:101B3000FC8087E5F81A26E12E9DC0012F9D900DAF
:101B40001124DC01A050BF4F1496ED91FC91159724
:101B5000309731F054966D917C918A5F9E4F099534
:101B600086E18E9D80018F9D100D112400501F4F26
:101B7000F80187810E949C1AF80180850E94AF1AA3
:101B80000E94D91A188219861B861E821D82109205
:101B9000E6011092E501DF91CF911F910F91FF9027
:101BA000EF900895DF92EF92FF920F931F93CF93E0
:101BB000DF937C01FB018281882391F080914901B0
:101BC0008F3F71F0C0E0D1E010E000E0DD24D3945D
:101BD00080914901082E000C990B8017910744F45D
:101BE000DF91CF911F910F91FF90EF90DF900895BB
:101BF0008E818823D9F089859A858E159F0539F4C1
:101C00008091E5019091E6018E159F0579F0DF86C0
:101C1000FC86EB868989811103C0CE010E94720D7A
:101C2000CE0106960E948D0D0E94B61A0F5F1F4FBF
:101C30006696CECFEF92FF920F931F93CF93DF93D1
:101C40007C0197558F3F910509F0D8F52091490106
:101C5000022E000C330B2817390714F48093490126
:101C6000FB01228136E1389F8001399F100D11243C
:101C7000E801C050DF4F288B92818E81992349F172
:101C8000FA86E9868F5F8E830E94C91C9E878D87A6
:101C90000E94BC1A8F830E94931A88870E94A61AFA
:101CA0009885892B8887E881F981309731F06C8994
:101CB0007D89C8018A5F9E4F0995F092E601E09206
:101CC000E50181E0DF91CF911F910F91FF90EF909F
:101CD00008958823B1F38989882399F3C8018A5F1D
:101CE0009E4F0E948D0DEDCFEF92FF920F931F93A9
:101CF000CF93DF938091490110E006E18F3FC1F55A
:101D0000DF91CF911F910F91FF90EF900895029F67
:101D1000F001039FF00D1124E050FF4FE288F3889B
:101D2000E114F10419F48AEFE82EF12C029FE0018E
:101D3000039FD00D1124C050DF4F8E818823B9F04E
:101D40008D859E850E94E11CE816F90680F4109F9F
:101D5000700111248989811105C0C70180509F4FEE
:101D60000E94720DC7018A5F9E4F0E948D0D1F5FFA
:101D7000212F30E080914901082E000C990B821729
:101D800093072CF6BDCF61E070E08AE491E00C94FB
:101D9000750F61E070E08AE491E00C947C0FCF93C2
:101DA000DF93D62FC72F0E9416100097E9F4ED2F6E
:101DB000FC2FDC01A451BE4F2C912193019684305D
:101DC0009105B9F70E94561D6E5F7F4F8F4F9F4F51
:101DD0006093E8017093E9018093EA019093EB012D
:101DE00081E0DF91CF91089580E0FBCFCF93DF9327
:101DF000D62FC72F6091E8017091E9018091EA0127
:101E00009091EB010E94391DED2FFC2F90E080E0B6
:101E10002191DC01A451BE4F2C9301968430910591
:101E2000B9F7DF91CF9108958EE14A9B02C08150AE
:101E3000E1F74A9BFECF08955A9880E28A95F1F720
:101E40005A9A0895FC013BE03A95F1F798E020E0BA
:101E500080E031E040E14A95F1F7880F4A9B02C0EB
:101E60008160232742E04A95F1F7000040E14A955E
:101E7000F1F7915079F790E19A95F1F799B132E045
:101E80003A95F1F7000040E14A95F1F792FB992766
:101E900090F992272081920F90830895EF92FF92FC
:101EA0000F931F93CF93DF930F92CDB7DEB71982B5
:101EB0008C017C01E60EF11C0E151F0561F481E01A
:101EC0009981911180E00F90DF91CF911F910F9137
:101ED000FF90EF9008950E94140FCE0101960E948A
:101EE000220FF80181938F01E7CF9093F101809346
:101EF000F001529A5A9A08959093F1018093F0015B
:101F000052985A9AEA9AE9E6F0E080818F7C8083C1
:101F100008956150770B91E001C0990F6A95EAF737
:101F200020E031E0911108C0222391F05A9A80E21A
:101F30008A95F1F75A980895492F482339F05A9A0B
:101F4000232740E24A95F1F79695ECCF5A98F9CFBE
:101F50005A98EDCFFF920F931F93CF93DF93EC012D
:101F60008C01060F111DC017D10731F4DF91CF91FD
:101F70001F910F91FF900895F9900E941C0F68E047
:101F80008F2D0E94890FEFCF1F920F920FB60F92E5
:101F900011242F933F934F935F936F937F938F936E
:101FA0009F93AF93BF93CF93DF93EF93FF935A9891
:101FB000529AC091F001D091F1016D81662321F018
:101FC0008E819F810E94AA0F0E941C0F80E18A953A
:101FD000F1F75A9852985A9A80E18A95F1F76A81F6
:101FE000662309F18B819C810E944E0FE881F98163
:101FF000882311F088E001C082E080830E94140FE2
:10200000FF91EF91DF91CF91BF91AF919F918F9110
:102010007F916F915F914F913F912F910F900FBEE4
:102020000F901F901895E881F981E4CFCF93DF934B
:10203000C091F001D091F101F894529A5A9885E03C
:102040008A95F1F7000052985A9A80E28A95F1F742
:102050004A9B0CC0529A5A9AE881F98181E08083A8
:10206000789481E090E0DF91CF9108956D816623AF
:1020700081F08E819F810E944E0F81110AC0529A79
:102080005A9AE881F98182E08083789482E090E036
:10209000EACF0E94140F80E28A95F1F75A98529A7B
:1020A00080E18A95F1F76A81662321F08B819C811A
:1020B0000E94AA0F0E941C0FE881F9811082789477
:1020C00090E080E0D0CF9093F7018093F6010895DF
:1020D000E091F601F091F701309721F00190F08145
:1020E000E02D099480E00895E091F601F091F70168
:1020F000309721F00280F381E02D0994089520911A
:10210000F4013091F5012817390771F09093F5012A
:102110008093F401E091F601F091F701309721F0FE
:102120000680F781E02D099408952091F201309105
:10213000F3012817390771F09093F3018093F201AE
:10214000E091F601F091F701309721F00084F185DC
:10215000E02D099408950E94D51C609305027093A8
:102160000602809307029093080260930102709325
:1021700002028093030290930402089585B7806859
:1021800085BF85B7806885BF0895089508950C942C
:10219000C51008950C94C9100E94BE1086E49BE1FE
:1021A0000E94821D0E94C6100C94C7100C943C0B18
:1021B000089508950E94D8100C94D9100E94C01C54
:1021C0000E94301D0E94D9090C94CA109F92AF92B0
:1021D000BF92CF92DF92EF92FF920F931F93CF9314
:1021E000DF93CDB7DEB72A970FB6F894DEBF0FBEE8
:1021F000CDBF0E94830A81110E94AB1089EFA82EE7
:1022000081E0B82E10E000E0902E802F0E94B009EF
:10221000E82EF501C1905F01C81609F44BC080910A
:102220007A0281FD0E94B609D12CFF24F394CE24BA
:102230008C2D8F21D1F10E94D610882399F0DE8257
:102240009F82EF2081E009F480E088870E94C91C0A
:102250008160782F9A8789874E815F8168858A851A
:102260000E948311F801E750FE4F8081F826F0822A
:102270000E9468109091F801891799F10E946810E6
:102280008093F8012A960FB6F894DEBF0FBECDBF3B
:10229000DF91CF911F910F91FF90EF90DF90CF9042
:1022A000BF90AF909F900C94A307D394FF0CF7E0DE
:1022B000DF12BECF0F5F1F4F0830110509F0A4CF0A
:1022C0008FEF89838A831B820E94C91C8160782FCB
:1022D0009D838C8349815A816B818D810E948311FA
:1022E000C7CF2A960FB6F894DEBF0FBECDBFDF91E1
:1022F000CF911F910F91FF90EF90DF90CF90BF9003
:10230000AF909F900895DF92EF92FF920F931F93EB
:10231000CF93DF93CDB7DEB72B970FB6F894DEBF20
:102320000FBECDBF7A878B87F42E052F162FE72E91
:10233000D82E61110E94B61A1E821D827E2DEC825B
:10234000DD824F2D502F612F8D2D9E812B960FB644
:10235000F894DEBF0FBECDBFDF91CF911F910F91DB
:10236000FF90EF90DF900C94C117FC018081918168
:102370000C941F1ACF93C82F882309F483C0823886
:10238000C1F40E94681081FD7DC089E30E944D1A4E
:102390000E94D91A2FEF81EE94E0215080409040A6
:1023A000E1F700C0000089E30E94541ACF910C9419
:1023B000D91A8338A1F40E94681080FD63C083E5B8
:1023C0000E944D1A0E94D91A2FEF81EE94E02150FD
:1023D00080409040E1F700C0000083E5E5CF8438FD
:1023E000A1F40E94681082FD4DC087E40E944D1A3E
:1023F0000E94D91A2FEF81EE94E021508040904046
:10240000E1F700C0000087E4CFCF8CEF8C0F813A5A
:1024100090F46C2F80915201909153010E94061C00
:10242000882329F08C2F0E94541A0E94D91A8C2FCD
:102430000E944D1ABBCF80E28C0F883048F4C770E1
:1024400081E001C0880FCA95EAF70E94961AAECFC4
:10245000EBE5EC0FE33040F4F0E0E353FE4F808116
:1024600090E0CF910C947F10C85AC73158F4EC2FEC
:10247000F0E0EE0FFF1FE156FE4F80819181CF917A
:102480000C949510CF910895882309F44BC082389D
:1024900071F40E94681081FF45C089E30E944D1AC3
:1024A0000E94D91A89E30E94541A0C94D91A8338CD
:1024B00059F40E94681080FF35C083E50E944D1AD0
:1024C0000E94D91A83E5EFCF843859F40E9468102E
:1024D00082FF28C087E40E944D1A0E94D91A87E41F
:1024E000E2CF9CEF980F913AF0F290E2980F98307B
:1024F00050F4877091E001C0990F8A95EAF7892F0F
:102500000E949C1AD2CF9BE5980F933020F490E064
:1025100080E00C947F10885A873120F490E080E0AE
:102520000C94951008951F93CF93DF93182FEB0110
:102530000E94BA11209731F4812FDF91CF911F9122
:102540000C9444128FE99FE00197F1F700C000005E
:102550002197F0CF70E060E0893311F460E570E01E
:102560000C949312882321F00E94961A0C94D91A85
:102570000895882321F00E949C1A0C94D91A08957A
:10258000BF92CF92DF92EF92FF920F931F93CF9360
:10259000DF936C01D62FC72FFC01128105810295B4
:1025A0000F700E946B1AE82E8823A1F0E12E1123F0
:1025B00089F08C2F807F803429F080E28D0FE12C10
:1025C000883040F082E00E942A1B0E946B1A91E042
:1025D000E82EE926BC2EB2949FE0B922FBE0FB1561
:1025E00098F1EB2DF0E0E358FB4D0C9424240C2FD4
:1025F0000F70C07F11F00295007F1123A9F0002316
:1026000059F080E28D0F883010F0D11109C0802F71
:102610000E94961A0E94D91A8D2F0E94BA1114C0D6
:10262000802F0E94A91AF6CF8D2F0E9444120023FA
:1026300059F080E28D0F883010F0D1112CC0802F1E
:102640000E949C1A0E94D91A2B2D2850330B24303B
:10265000310520F40E9468100E94A307EE2009F4BF
:1026600083C10E94671A80FD7FC1F60112820E9419
:10267000611A0E94ED18C6010E94D5140E94611AC9
:10268000DF91CF911F910F91FF90EF90DF90CF904E
:10269000BF900C940E19802F0E94AF1AD3CF2C2F0D
:1026A0002F70F22EC07FC03219F0F29480EFF82222
:1026B000DD2369F0D13049F1112391F1002351F16B
:1026C000F601858180FFA8CF8F70858323C01123F9
:1026D00081F0011106C00E94BC1A8F290E94B2121B
:1026E000B3CF0130C1F70E94BC1A8F290E94C21AD1
:1026F000ABCF011106C00E94CF1A8F2D0E94B912D4
:10270000A3CF013009F4A0CFF6CF112329F0063072
:1027100008F09ACF8F2DE2CF053008F095CFEDCF9E
:10272000002359F3D93349F4FFEF27EE33E0F1509A
:1027300020403040E1F700C000008D2F0E9444127D
:1027400083CF8C2F86958695837069F0813009F050
:102750007BCF8D2F9C2F9370111102C090E080E0F1
:102760000E94951071CF8D2F9C2F9370111102C074
:1027700090E080E00E947F1067CF8C2F837009F07B
:1027800041C0111161CF4D2F429546954770440FBE
:10279000440F0D2F0F7010E030E020E0042E04C035
:1027A000000F111F221F331F0A94D2F760E070E060
:1027B000CB01D4FF0FC06FE070E080E090E004C078
:1027C000660F771F881F991F4A95D2F760957095FD
:1027D00080959095C695C695C370602B712B822B02
:1027E000932BC23049F058F4C13019F00E947F1881
:1027F0002BCF0E946D1828CF0E94911825CF0E94E0
:102800006B1822CF8695112311F08C2F81708823AD
:1028100009F41ACF4D2F429546954770440F440F47
:102820000D2F0F7010E030E020E0042E04C0000FE8
:10283000111F221F331F0A94D2F760E070E0CB0112
:10284000D4FF0FC06FE070E080E090E004C0660F3E
:10285000771F881F991F4A95D2F7609570958095CC
:102860009095C695C695C370602B712B822B932BC8
:10287000C23049F058F4C13019F00E946419E4CE16
:102880000E945219E1CE0E947619DECE0E94A7184E
:10289000DBCECF70112329F08C2F0E94ED188D2FE5
:1028A0001DCF8D2F0E94B9128C2F0E940E19CCCEF5
:1028B000D23F89F160F4D03FC9F0D13F29F1112313
:1028C00009F442C00111A8CE8C2F8F7121C0D33FD3
:1028D00039F1D43FA1F7112369F1CF718C2F0E94F8
:1028E000ED1863E08C2F0E940F1BAECE112341F038
:1028F000053008F0A9CE8C2F8F710E943119A4CE1B
:10290000063008F0A1CEF7CF8C2F8F71112369F21A
:102910000E94ED1899CE8C2F8F711123C9F3C5CF6A
:10292000112329F08C2F8F710E94D8188DCE0E9410
:10293000B3188ACE81E00E942A1B023008F484CEAC
:1029400082E00E942A1B80CE002359F0D93309F07F
:10295000F4CE8FEF97EEE3E081509040E040E1F756
:10296000EACE8C2F8F71A1CFDF91CF911F910F9164
:10297000FF90EF90DF90CF90BF9008950F931F933B
:10298000CF93DF93EC01688179818A810E94291AB3
:102990008C010E9488190E946A18B801CE01DF914B
:1029A000CF911F910F910C94C012CF93DF93EC0144
:1029B0008B819C81892B29F08881998189238F3F84
:1029C00059F4DF91CF910895CE010E94BE14CE013B
:1029D000DF91CF910C941D07CE010E944007811119
:1029E000F3CF0E946B1A882361F38A81882349F30D
:1029F00082E0DF91CF910C942A1B90E080E00E944E
:102A00007F1090E080E00E9495100E94B61A0E940C
:102A1000B91A0C94D91A0E945B1A0C94FD140E94E6
:102A2000A31A0C940B15E92FE295EF70E250EE30EB
:102A300070F4F0E0E757FB4D0C942424803F19F02C
:102A400020F4883E20F481E00895843FE1F380E0A3
:102A50000895883EC0F3813FD1F7F5CF93FB8827D7
:102A600080F908950E941F1A0C941315CF93DF93D9
:102A700000D000D00F92CDB7DEB70F900F900F901F
:102A80000F900F90DF91CF910895CF93DF9300D0F7
:102A900000D000D0CDB7DEB726960FB6F894DEBFD3
:102AA0000FBECDBFDF91CF9108951F93CF93DF93DA
:102AB000C0910A0216E080910B028C1304C0DF91D2
:102AC000CF911F910895D0E01C9FF0011D9FF00D44
:102AD0001124E45FFD4F40815181628173818481C3
:102AE00095810E9445152196C770E5CF40913C0223
:102AF00050913D0260913E0270913F0280914002F0
:102B0000909141020C94451520910A0290910B027C
:102B100056E0291302C080E0089530E0529FF00192
:102B2000539FF00D1124E45FFD4F7181761306C0B1
:102B30007081781303C07281741304C02F5F3F4FFC
:102B40002770E7CF81E008951F93CF93DF938091A3
:102B50004102807FA9F480913E02882389F0809110
:102B60000A02C0910B0260913C0270913D02A0915B
:102B70003F02B0914002D62FD72316E0C81304C0FD
:102B8000DF91CF911F91089590E0109711F0DF3FF2
:102B900019F401968770F2CF189F9001199F300D9C
:102BA0001124F901E45FFD4F41814713F2CF4081C9
:102BB0004613EFCF42814111ECCF438154814A1B30
:102BC0005B0B4A3F510528F7809141028F7080616D
:102BD00080934102F901EF5EFD4F80818F7080612B
:102BE00080838CE392E00E94D514DF91CF911F91F6
:102BF0000C9455158F929F92AF92BF92CF92DF9215
:102C0000EF92FF920F931F93CF93DF93CDB7DEB771
:102C100061970FB6F894DEBF0FBECDBF8C0185E083
:102C2000F801DE011D9601900D928A95E1F7D80119
:102C3000EC901196FC9011971296CC9012978CE321
:102C4000A82E82E0B82E40913F02509140024115DB
:102C5000510509F474C190913C0220913D02892FE5
:102C600082238F3F09F46BC113968D909C9014972B
:102C7000D0903E02F401E41BF50BDD2009F40AC1FB
:102C800080914102382F307FEA3FF10508F0C1C042
:102C9000311189C0DC2C2F1126C09E1124C0C11017
:102CA00022C08F708061809341020E947615C50119
:102CB0000E94D51480914102D80115968C938D2DD8
:102CC00061960FB6F894DEBF0FBECDBFDF91CF91F6
:102CD0001F910F91FF90EF90DF90CF90BF90AF903A
:102CE0009F908F9008958114910429F08F2D8E214B
:102CF0008F3F09F043C180E080FF15C04C2D6F2D40
:102D00008E2D0E948415882371F08CE392E00E943E
:102D1000D51486E0ECE3F2E0DF011D928A95E9F735
:102D20000E9476153EC0892829F08F2D8E218F3F75
:102D300009F021C180E0B82FB170AB2E80FF29C00F
:102D40004C2D6F2D8E2D0E948415B82E811121C01F
:102D5000ED86FE868D859E850E941F1A292F22955D
:102D60002F70223050F0243078F49F7051F0F80129
:102D70009581907F31F4DB2CA2CF9F7011F08823D6
:102D8000D1F3805E8830B8F3C8010E94D514BA2C04
:102D9000F2CFCC2009F493CF8091410281608093DF
:102DA0004102D12C8CCF2F1105C09E1103C0CC2025
:102DB00009F48DC0ED86FE868D859E850E943215B4
:102DC000882319F1CC2009F180914102803270F002
:102DD00020913C0230913D0238872F8319869B86D3
:102DE0008A868C87CE0107960E94D51486E0F8016A
:102DF000ACE3B2E001900D928A95E1F70E94A41530
:102E00000E947615DD24D3945ACFC8010E94D514B0
:102E1000F9CF311112C0782D998A888AA7016C2DBB
:102E200089890E9436158CE392E00E94D51486E0D1
:102E3000F50111928A95E9F773CF2F110FC09E11FA
:102E40000DC0C1100BC015968C93C8010E94D514FB
:102E500086E0F50111928A95E9F731CFED86FE867D
:102E60008D859E850E943215882379F2CC2069F2E7
:102E700080914102803208F4B9CF20913C02309118
:102E80003D023A8329831B829D828C828E83CE01F0
:102E90000196AACFEA3FF10508F043C0DC2CCC2014
:102EA00009F4B3CF2F112CC09E112AC0809141028A
:102EB00080FD1DC0982F907FD1F015968C931597AB
:102EC000903F39F0982F907F905F8F70892B1596E7
:102ED0008C93C8010E94D51486E0F801ACE3B2E0FF
:102EE00001900D928A95E1F70E947615E8CE86E072
:102EF000F801ACE3B2E001900D928A95E1F7DFCEE4
:102F0000ED86FE868D859E850E94321581116ECFDD
:102F100080914102816080934102C8010E94D514D2
:102F2000CECE782D998A888AA7016C2D89890E9436
:102F3000361586E0F50111928A95E9F7D5CFCC20B8
:102F400009F463CFED86FE868D859E850E9432153D
:102F5000D82E882309F459CF86E0F801ACE3B2E01B
:102F600001900D928A95E1F78CE392E00E94B511F1
:102F70000E94A415B9CF81E08C25DDCE81E08C259F
:102F8000BBCE1F93CF93DF93CDB7DEB72C970FB691
:102F9000F894DEBF0FBECDBF4F83588769877A870D
:102FA0008B879C87CE0107960E94FA15882369F0CB
:102FB0008A859B85892B39F04F815885842F8523FD
:102FC0008F3F09F071C016E05FC086E0FE013796C2
:102FD000DE01119601900D928A95E1F78A859B8515
:102FE000892B89F388859F8189238F3F61F3209105
:102FF0000B0230E0C90101968770992740910A02BF
:103000004817190671F40E940F1510920B021092C6
:103010000A0286E0ECE3F2E0DF011D928A95E9F70F
:10302000D2CF96E0929FD001939FB00D1124A45F60
:10303000BD4FFE01319601900D929A95E1F7809374
:103040000B020E945515BFCF819FC0011124845FE0
:103050009D4F0E94FA158823E9F0E0910A021E9F15
:10306000F0011124E45FFD4F408151816281738141
:10307000848195810E94451580910A0290E0019615
:103080008770992780930A0280910A0290910B021F
:103090008913DACF2C960FB6F894DEBF0FBECDBFE2
:1030A000DF91CF911F91089569857A858B859C85E5
:1030B0000E94451588CF08950C945B180E945C18F7
:1030C0006093690270936A0280936B0290936C0222
:1030D0000C94FD1408950C945E180F931F930091A7
:1030E000690210916A0220916B0230916C02602B90
:1030F000712B822B932B1F910F910C945E180F93C1
:103100001F930091690210916A0220916B02309125
:103110006C0260237123822393231F910F910C94DF
:103120005E180F931F930091690210916A0220911B
:103130006B0230916C0260277127822793271F91C1
:103140000F910C945E180C945B180C94A3180E94B9
:10315000A51860936502709366028093670290934E
:1031600068020C94FD1460E070E0CB010C94A71889
:10317000611571058105910529F481E0442361F011
:1031800080E00895DC01CB0104C0B695A795979522
:1031900087954A95D2F781700895482F609165020E
:1031A0007091660280916702909168020C94B81841
:1031B0000F931F9341E050E060E070E08A019B01B3
:1031C00004C0000F111F221F331F8A95D2F7C901B7
:1031D000B8011F910F910C94A7180F931F9341E012
:1031E00050E060E070E004C0440F551F661F771F79
:1031F0008A95D2F78091650290916602A09167024C
:10320000B09168028A019B01082B192B2A2B3B2BBA
:10321000C901B8011F910F910C94A7180F931F9328
:1032200041E050E060E070E004C0440F551F661FAD
:10323000771F8A95D2F7CB01BA016095709580957A
:10324000909500916502109166022091670230917D
:10325000680260237123822393231F910F910C94A2
:10326000A7180F931F9341E050E060E070E004C0A6
:10327000440F551F661F771F8A95D2F7809165020C
:1032800090916602A0916702B09168028A019B0149
:10329000082719272A273B27C901B8011F910F9139
:1032A0000C94A7180F931F9300916502109166026A
:1032B0002091670230916802602B712B822B932B37
:1032C0001F910F910C94A7180F931F930091650203
:1032D0001091660220916702309168026023712389
:1032E000822393231F910F910C94A7180F931F9380
:1032F0000091650210916602209167023091680288
:1033000060277127822793271F910F910C94A7188C
:10331000089527E0929F800D1124982F977041E027
:1033200001C0440F9A95EAF786958695869595E0B3
:10333000899FF0011124EE5BFD4F90E080E070E08A
:103340005191DF0111979B01082E02C036952795F8
:103350000A94E2F7217021952527242325272C9311
:1033600001968530910561F7089527E0929F800DC1
:103370001124982F977086958695869525E0829FD3
:10338000F0011124EE5BFD4F50E040E080E0219120
:1033900030E0092E02C0369527950A94E2F7217095
:1033A0003327042E01C0220F0A94EAF7822B4F5FC5
:1033B0005F4F4530510559F70895BF92CF92DF9284
:1033C000EF92FF920F931F93CF93DF938C01C090E6
:1033D0006502D0906602E0906702F09068028091EA
:1033E000690290916A02A0916B02B0916C02C82AA6
:1033F000D92AEA2AFB2ACFE1D0E0BC2ED701C601A8
:103400000C2E04C0B695A795979587950A94D2F788
:1034100080FD0EC0219788F7B12C8B2DDF91CF91C5
:103420001F910F91FF90EF90DF90CF90BF90089584
:10343000B8018C2F0E94BF07019761F3EECFCF93A5
:10344000DF93EC010E94DD19BE01DF91CF910C9456
:10345000BF071F93CF93DF93EB019091090299234C
:1034600031F0CB01DF91CF911F910C941F1A88236B
:1034700079F0CB010E94DD19182F682FCE010E9430
:103480008919BE01812FDF91CF911F910C94BF0745
:10349000CB010E94B519182FF4CF682F80915201EB
:1034A000909153010C943C1C682F80915201909193
:1034B00053010C943E1C80915201909153010C9445
:1034C000401C80916D028595859585950895809124
:1034D0006D028770089590916D02977081E009F4F4
:1034E00080E008959091870292FB222720F9281707
:1034F00051F080FB92F9909387028091860290911F
:1035000087020C94691B08958091870282FB8827AB
:1035100080F991E089270C94721A81E00C94721A58
:1035200080E00C94721A809179020895909179024A
:10353000892B809379020895809590917902982340
:1035400090937902089510927902089580917802FB
:10355000089590917802892B809378020895809540
:1035600090917802982390937802089510927802AF
:10357000089510927702089580916E02089508953B
:103580000C94BF1A9091870292FD08C090916E0230
:10359000981721F080936E020C94C01A08958091C0
:1035A0006E02882329F010926E0280E00C94C01AFB
:1035B0000895E0915201F091530180917902808346
:1035C000E0915201F0915301808190917802892B12
:1035D0008083E0915201F0915301808190917702B4
:1035E000892B808390916E02992381F0E0915201A2
:1035F000F09153018081892B8083809152019091B9
:1036000053010E94F41B81110E94CF1A8091520134
:10361000909153010C94741008950C940C1B90918C
:10362000870292FD10C098E0899F90011124622BBF
:1036300060936D020E94ED1880916D0285958595CD
:1036400085950C940D1B0C94ED1810926D0280E082
:103650000C940D1B90916D028095892380936D02CF
:10366000282F277039F4282F082E000C330B9217BF
:10367000130621F49091870292FF07C085958595E6
:1036800085950E940E190C94251B089580E00895DD
:1036900090E080E00E94322421E08A3E9E4F09F0B3
:1036A00020E0822F089582E090E00C942A2483E0A9
:1036B00090E00C942A24CF9384E090E00E942A2486
:1036C000C82F82E290E00E942A24982F8C2FCF915D
:1036D0000895CF93C92F682F84E090E00E9438248A
:1036E0006C2F82E290E0CF910C943824AB01BC01A6
:1036F0008FE090E00C944A24AB01BC0183E190E0A0
:103700000C944A2460E070E0CB010C947C1B60E0D8
:1037100070E0CB010E94761B0C94821B6AEE7EEF58
:1037200090E080E00E94562460E082E090E00E94F9
:10373000382460E083E090E00E943824109269020F
:1037400010926A0210926B0210926C0260E084E0A8
:1037500090E00E94382460E082E290E00E943824E9
:1037600060E085E090E00E94382460E086E090E030
:103770000E9438246FEF87E090E00E94382440E0F8
:1037800050E0BA0188E090E00E944A2460E08DE0B9
:1037900090E00E94382440E050E0BA0188E190E0D7
:1037A0000E944A2460E087E190E00E94382440E0D3
:1037B00050E0BA018CE190E00E944A2470E060E0A1
:1037C00080E290E00E94562440E050E0BA0188E197
:1037D00090E00E944A240C94871B0C948E1B682F47
:1037E0008EE090E00C9438249C012E5F3F4FAC019A
:1037F000485F5F4F80E02417350709F40895F90109
:1038000091919F019923B9F38F5FF5CF662349F01A
:10381000FC01329608962191261729F0E817F9073E
:10382000D1F780E0089581E008959C01FC01329673
:103830009FEF80E04191461751F09F3F19F44111ED
:1038400001C0982F8F5F8630A9F79F3F09F4089534
:10385000290F311D97FD3A95F90162830895FC0106
:10386000329608962191261303C0DF0111971C920E
:10387000E817F907B9F708950C94151C0C942F1C40
:10388000029626E0FC0111922A95E9F70895089521
:1038900008950C94481C8091A602843049F10E943E
:1038A000491C80E00E94A30710927B0288E190E00F
:1038B00020E40FB6F894A895809360000FBE209383
:1038C000600083B7817F846083BF83B7816083BFDB
:1038D0007894889583B78E7F83BF0FB6F894A895A8
:1038E00080916000886180936000109260000FBE3C
:1038F00008950895CF930E94471C0E94830A0E9456
:10390000791CC0E08C2F0E94B009811105C0CF5FE7
:10391000C830C1F7CF91089581E0FCCF08950C9491
:103920008E1C0E940F150E9468100E94A3070C9421
:103930008F1C1F921FB61F9211248F939F93AF93DA
:10394000BF9380917B02811113C080919A02909164
:103950009B02A0919C02B0919D024196A11DB11DB8
:1039600080939A0290939B02A0939C02B0939D0235
:10397000BF91AF919F918F911F901FBE1F9018957F
:1039800082E084BD93E095BD9AEF97BD80936E0071
:1039900008952FB7F89480919A0290919B02A0917C
:1039A0009C02B0919D022FBF08952FB7F8946091AB
:1039B0009A0270919B0280919C0290919D022FBF70
:1039C00008959C014FB7F89480919A0290919B02C0
:1039D000A0919C02B0919D024FBF821B930B089552
:1039E000CF92DF92EF92FF922FB7F894C0909A0295
:1039F000D0909B02E0909C02F0909D022FBFA70107
:103A00009601261B370B480B590BCA01B901FF90D1
:103A1000EF90DF90CF90089578941F921FB61F9279
:103A200011248F939F93AF93BF9380919A029091AB
:103A30009B02A0919C02B0919D020196A11DB11D17
:103A400080939A0290939B02A0939C02B0939D0254
:103A5000BF91AF919F918F911F901FBE1F9018959E
:103A600010929E0210929F021092A0021092A10248
:103A70000895CF92DF92EF92FF926B017C010E943A
:103A80003C0B81110EC00E94D51CC61AD70AE80A49
:103A9000F90AC0929E02D0929F02E092A002F09298
:103AA000A102FF90EF90DF90CF9008950F931F93A6
:103AB0000E943C0B882321F01F910F910C94D51C80
:103AC0000E94D51C00919E0210919F022091A0029D
:103AD0003091A102600F711F821F931F1F910F91E0
:103AE000089587E797E7909301088093000888E19D
:103AF0009AE00FB6F894A895809360000FBE90935B
:103B00006000FFCF9093D1018093D0010895809100
:103B1000840208950895CF93DF9300D00F92CDB71C
:103B2000DEB79091A602943019F589837B836A836E
:103B300082E08093E9008FEF9091E800815095FD3D
:103B400006C095ED9A95F1F700008111F5CF8091AF
:103B5000E80085FF0DC050E040E063E070E0CE017A
:103B600001960E94811F8091E8008E778093E80083
:103B70000F900F900F90DF91CF910895BC0184E0DA
:103B80000C948B1DBC0183E00C948B1DCF93DF93B1
:103B9000EC0181E08093E9008FEF9091E800815083
:103BA00095FD06C095ED9A95F1F700008111F5CFCE
:103BB0008091E80085FF14C050E040E068E070E0CC
:103BC000CE010E94811F8091E8008E778093E800EB
:103BD00088E0FE01ACE7B2E001900D928A95E1F732
:103BE000DF91CF9108958091A502811109C00E94B3
:103BF00011210E946E218091E20084608093E20096
:103C000008951092A502089508950895089542E038
:103C100061EC81E00E948D2042E261EC82E00C9434
:103C20008D208091A802833009F45FC030F4813088
:103C3000C1F1823009F49BC008958A3009F487C02D
:103C40008B3009F46DC0893009F04EC08091A70215
:103C5000813209F049C08091AB029091AC02029789
:103C600008F042C08091E800877F8093E80080914F
:103C7000E80082FF35C09091F3008091F200029736
:103C800029F48091F1008B7F813021F48091F10043
:103C9000809384028091E8008B778093E8000C94F5
:103CA000C1208091A702813AF9F48091E800877FD2
:103CB0008093E8008091AB029091AC02892B61F473
:103CC00068E08CE792E070E00E94D01F8091E800ED
:103CD0008B778093E800089560E090E080E0F3CF78
:103CE0008091A6028111C3CF08958091A702813AE5
:103CF000D9F78091AB029091AC02892BA9F7809102
:103D0000E800877F8093E8008091E80080FFFCCF87
:103D100080915E018093F1008091E8008E77BDCFA5
:103D20008091A702813201F78091AB029091AC02A1
:103D3000892BD1F68091E800877F8093E8000E946C
:103D4000C1208091A90280935E010C940F1580918F
:103D5000A702813249F68091E800877F8093E800CE
:103D60000E94C1208091AA028093850208958091CB
:103D7000A702813A09F0B8CF8091E800877F80934D
:103D8000E8008091E80080FFFCCF80918502C2CFDF
:103D900084B7877F84BF0FB6F894A89580916000A0
:103DA000886180936000109260000FBE80E890E010
:103DB0000FB6F89480936100909361000FBE0E944B
:103DC000CC100E9411210E946E218091E20084603B
:103DD0008093E20078940E94F7230E94DE1084E52D
:103DE00091E00E9463108091A602853099F00E94B4
:103DF000E6100E94DA10F7CF0E944B1C8091A402BB
:103E0000882341F00E947A1C882321F00E946B1FB6
:103E10000E940F158091A602853071F30E94911CBB
:103E2000E6CF0C94131F292F33272330310519F1C6
:103E300068F42130310509F444C02230310509F419
:103E400045C090E080E030E020E025C0213231051F
:103E500049F122323105A9F780E490E021EF33E007
:103E600061157105C1F082E390E02FEB33E0613022
:103E7000710589F0E6CF99278130910581F000978F
:103E800029F00297F1F6ECE4F3E002C0EEE6F3E08D
:103E9000849190E09F01FA01318320830895ECE53D
:103EA000F3E0F6CF89E090E024E833E06115710596
:103EB00091F389E090E02DE933E06130710559F329
:103EC000C0CF82E190E02DEA33E0E5CF8BE390E0D4
:103ED00022E733E0E0CF80E189BD82E189BD09B40A
:103EE00000FEFDCF8091D8008F7D8093D800809117
:103EF000E00082608093E0008091E00081FDFCCFD3
:103F00000895AF92BF92CF92DF92FF920F931F93CB
:103F1000CF93DF936C01EB018A010E94E020F82E21
:103F2000811123C00115110539F0F80180819181BB
:103F3000C81BD90BC80ED91EB12CA12C2097A9F0F3
:103F40008091E80085FD22C08091E8008E77809303
:103F5000E80001151105A1F0F80180819181A80EFA
:103F6000B91EB182A08285E0F82E8F2DDF91CF910E
:103F70001F910F91FF90DF90CF90BF90AF90089569
:103F80000E94E0208823D1F2F82EEFCFF601819134
:103F90006F018093F1002197FFEFAF1ABF0ACECFD8
:103FA000FC018091AD029091AE0286179707A0F0B8
:103FB0006115710529F49091E8009E779093E800CF
:103FC00090E06115710551F4911108C08091E800ED
:103FD00082FF34C080E00895BC01F2CF8091A60238
:103FE0008823C1F18530C1F18091E80083FD30C0A4
:103FF0008091E80082FDEACF8091E80080FFE1CF68
:104000008091F3002091F200382F6115710519F0AD
:104010002830310558F091E02830310509F090E062
:104020002091E8002E772093E800CBCF81918093F8
:10403000F100615071092F5F3F4FE7CF8091A602D9
:10404000882341F0853041F08091E80083FFBECFA6
:1040500081E0089582E0089583E00895FC01809155
:10406000AD029091AE0286179707A0F06115710519
:1040700029F48091E8008E778093E80090E0611544
:10408000710551F4911108C08091E80082FF35C09C
:1040900080E00895BC01F2CF8091A6028823C9F187
:1040A0008530C9F18091E80083FD31C08091E8003E
:1040B00082FDEACF8091E80080FFE1CF8091F3009C
:1040C0002091F200382F6115710519F02830310563
:1040D00058F091E02830310509F090E08091E80037
:1040E0008E778093E800CBCF84918093F100319656
:1040F000615071092F5F3F4FE6CF8091A602882360
:1041000041F0853041F08091E80083FFBDCF81E030
:10411000089582E0089583E00895982F973028F05D
:104120008F708093E90081E008959093E900242F37
:10413000762F50E0981731F07091EC002091ED004F
:104140005091F00021FD02C09F5FE8CF3091EB005D
:104150003E7F3093EB003091ED003D7F3093ED00DA
:104160003091EB0031603093EB007093EC002093C2
:10417000ED005093F0002091EE0027FDE5CF80E0A8
:1041800008958091A70287FF13C08091E80082FF05
:1041900006C08091E8008B778093E80004C080918E
:1041A000A6028111F2CF08958091A6028823D9F347
:1041B0008091E80080FFF8CF8091E8008E77ECCF07
:1041C0002091E4003091E50095E6A9012091EC00F2
:1041D000822F817020FF06C08091E80080FF06C01A
:1041E00080E008952091E80022FD1AC08091A60287
:1041F000882389F0853089F08091EB0085FD0FC020
:104200002091E4003091E50042175307F9F29150F4
:10421000E1F684E0089582E0089583E0089581E066
:1042200008950E947F210E948721E0EEF0E08081C6
:1042300081608083E8EDF0E080818F77808319BC16
:10424000A7EDB0E08C918E7F8C9380818F7E8083F0
:104250001092A50208950F931F93CF93DF930E94AE
:104260007F210E948721C8EDD0E088818F778883E5
:1042700088818068888388818F7D888319BC1092AB
:10428000A6021092A2021092A4021092A30200EEC3
:1042900010E0F80180818B7F808388818160888332
:1042A00042E060E080E00E948D20E1EEF0E080815D
:1042B0008E7F8083E2EEF0E0808181608083808168
:1042C00088608083F80180818E7F8083888180610F
:1042D0008883DF91CF911F910F910895E8EDF0E071
:1042E00080818F7E8083E7EDF0E080818160808334
:1042F00084E082BF81E08093A5020C942B21E8ED3D
:10430000F0E080818E7F80831092E2000895109209
:10431000DA001092E10008951F920F920FB60F92EB
:1043200011242F933F934F935F936F937F938F93BA
:104330009F93AF93BF93EF93FF938091E10082FF30
:104340000BC08091E20082FF07C08091E1008B7F6B
:104350008093E1000E94F6238091DA0080FF19C06B
:104360008091D80080FF15C08091DA008E7F809305
:10437000DA008091D90080FF96C080E189BD82E19A
:1043800089BD09B400FEFDCF81E08093A6020E94A2
:10439000F31D8091E10080FF19C08091E20080FF51
:1043A00015C08091E2008E7F8093E2008091E20050
:1043B00080618093E2008091D80080628093D80071
:1043C00019BC85E08093A6020E94051E8091E10041
:1043D00084FF2BC08091E20084FF27C080E189BD6B
:1043E00082E189BD89B5982F917080FFFBCF8091C4
:1043F000D8008F7D8093D8008091E1008F7E8093DC
:10440000E1008091E2008F7E8093E2008091E200E3
:1044100081608093E2008091A202882309F449C060
:1044200084E08093A6020E94061E8091E10083FF33
:1044300029C08091E20083FF25C08091E100877F41
:104440008093E10082E08093A6021092A202809104
:10445000E1008E7F8093E1008091E2008E7F809367
:10446000E2008091E20080618093E20042E060E03F
:1044700080E00E948D208091F00088608093F000A1
:104480000E94041EFF91EF91BF91AF919F918F9178
:104490007F916F915F914F913F912F910F900FBE40
:1044A0000F901F90189519BC1092A6020E94011E31
:1044B00070CF8091E30087FD93E09093A602B3CF85
:1044C0001F920F920FB60F9211242F933F934F9389
:1044D0005F936F937F938F939F93AF93BF93CF938C
:1044E000DF93EF93FF93D091E900DF708091EC00B0
:1044F000C82FC17080FDC0E81092E9008091F000E3
:10450000877F8093F00078940E94A4221092E900A3
:104510008091F00088608093F000CD2BCF70C09325
:10452000E900FF91EF91DF91CF91BF91AF919F9102
:104530008F917F916F915F914F913F912F910F904C
:104540000FBE0F901F9018951F93CF93DF93CDB799
:10455000DEB7AA970FB6F894DEBF0FBECDBF87EACD
:1045600092E02091F100FC012193CF01F2E08F3A1B
:104570009F07B9F70E94111E8091E80083FF1EC1BA
:104580008091A7029091A8029A3008F017C1E92FF4
:10459000F0E0E956FB4D0C942424803899F08238E1
:1045A00009F00CC18091AB028F70873008F006C112
:1045B0008093E9008091EB0085FB882780F91092B9
:1045C000E90006C08091A3029091A402911182603B
:1045D0009091E800977F9093E8008093F10010920B
:1045E000F1008091E8008E77E5C0882309F4D3C0FC
:1045F000823009F0E3C08091A9028111D6C0809178
:10460000AB028F702FEF280F263008F0D7C08093B1
:10461000E9002091EB0020FFC8C0933031F4809175
:10462000EB0080628093EB00C0C09091EB00906142
:104630009093EB0021E030E001C0220F8A95EAF769
:104640002093EA001092EA008091EB008860EACFA4
:104650008111B4C01091A9021F778091E300807886
:10466000812B8093E3008091E800877F8093E800AE
:104670000E94C1208091E80080FFFCCF8091E30080
:1046800080688093E30082E0111183E08093A602AA
:1046900095C08058823008F091C08091A902909115
:1046A000AA028C3D23E09207A1F583E08A838AE287
:1046B00089834FB7F894DE01139620E03EE051E283
:1046C000E32FF0E050935700E49120FF03C0E29500
:1046D000EF703F5FEF708E2F90E0EA30C0F0C7962A
:1046E0008D939D932F5F243159F74FBF8091E80040
:1046F000877F8093E8006AE270E0CE0101960E9415
:10470000D01F8091E8008B778093E80057C0C09657
:10471000E7CF6091AB027091AC02AE014F5F5F4F8B
:104720000E94111FBC01892B09F448C09091E80038
:10473000977F9093E80089819A810E942E20E1CF93
:104740008038E1F58091E800877F8093E8008091D0
:10475000A2028093F10045CF811130C09091A9024F
:10476000923060F58091E800877F8093E800909315
:10477000A2020E94C1208091A202882311F084E04D
:1047800005C08091E30087FDFACF81E08093A60207
:104790000E94071E13C08091A902813079F481E044
:1047A000933009F080E08093A4021092E900809198
:1047B000E800877F8093E8000E94C1208091E80094
:1047C00083FF0AC08091E800877F8093E800809192
:1047D000EB0080628093EB00AA960FB6F894DEBFE0
:1047E0000FBECDBFDF91CF911F9108950895CF9354
:1047F0008091A6028823A1F0C091E900CF7090912A
:10480000EC00892F817090FD80E8C82B1092E900A0
:104810008091E80083FD0E94A422CF70C093E9003C
:10482000CF9108950E9411211092A6020895E8EDFB
:10483000F0E08081806180838AE18A95F1F700C091
:104840008091D90081700895EE0FFF1F0590F491BB
:10485000E02D0994F999FECF92BD81BDF89A992770
:1048600080B50895A8E1B0E042E050E00C945E24E9
:10487000262FF999FECF92BD81BDF89A019700B419
:10488000021639F01FBA20BD0FB6F894FA9AF99AB9
:104890000FBE08950396272F0E9439240E943824C2
:1048A000252F0E943924242F0C9439240196272F78
:1048B0000E9439240C943824DC01CB01FC01F999C5
:1048C000FECF06C0F2BDE1BDF89A319600B40D925C
:1048D00041505040B8F70895F894FFCF7002B202EB
:1048E000E102160348037A03AC03DE03160448040E
:1048F0007A04AC04DB0410054505F712F7124F13D8
:104900004F13A113241324132413BD134914581453
:1049100058141E151E152715271529152715271597
:1049200027151E151E152E15271527152E15CD22F8
:10493000F522DE23F522DE2328234923DE23A023CC
:02494000AC23A6
:104942000000960552050000000000000000000073
:104952000000000000000000AE056A050000000033
:104962000000000000000000000000000000C6057A
:1049720082050000000000000000000000000000AE
:10498200000001000100010001FFE70104E8010449
:10499200EC016F02871DC61D8A1DC21DBE1D01E2EC
:1049A20000E900EA00B500B600B700CD008301CCF3
:1049B200008A019201940121022302240225022687
:1049C2000227022A02B300B4006F007000818283C2
:1049D200F4F5F6F7313332946697C600000000E230
:1049E20000E900EA00B500B600B700CD008301CCB3
:1049F200008A019201940121022302240225022647
:104A02000227022A02B300B4006F00700081828381
:00000001FF
